{
  "contractName": "Stacking",
  "abi": [
    {
      "inputs": [
        {
          "internalType": "contract WarWeapon",
          "name": "_nftaddress",
          "type": "address"
        },
        {
          "internalType": "contract Warcoin",
          "name": "_rewardToken",
          "type": "address"
        }
      ],
      "stateMutability": "nonpayable",
      "type": "constructor"
    },
    {
      "anonymous": false,
      "inputs": [
        {
          "indexed": true,
          "internalType": "address",
          "name": "_from",
          "type": "address"
        },
        {
          "indexed": false,
          "internalType": "uint256",
          "name": "_tokenId",
          "type": "uint256"
        },
        {
          "indexed": false,
          "internalType": "uint256",
          "name": "_amount",
          "type": "uint256"
        }
      ],
      "name": "nftStaked",
      "type": "event"
    },
    {
      "anonymous": false,
      "inputs": [
        {
          "indexed": true,
          "internalType": "address",
          "name": "_from",
          "type": "address"
        }
      ],
      "name": "nftUnstaked",
      "type": "event"
    },
    {
      "inputs": [],
      "name": "endTime",
      "outputs": [
        {
          "internalType": "uint256",
          "name": "",
          "type": "uint256"
        }
      ],
      "stateMutability": "view",
      "type": "function"
    },
    {
      "inputs": [],
      "name": "nftToken",
      "outputs": [
        {
          "internalType": "contract WarWeapon",
          "name": "",
          "type": "address"
        }
      ],
      "stateMutability": "view",
      "type": "function"
    },
    {
      "inputs": [],
      "name": "rewardToken",
      "outputs": [
        {
          "internalType": "contract Warcoin",
          "name": "",
          "type": "address"
        }
      ],
      "stateMutability": "view",
      "type": "function"
    },
    {
      "inputs": [
        {
          "internalType": "address",
          "name": "",
          "type": "address"
        }
      ],
      "name": "staked",
      "outputs": [
        {
          "internalType": "uint256",
          "name": "tokenId",
          "type": "uint256"
        },
        {
          "internalType": "uint256",
          "name": "amount",
          "type": "uint256"
        },
        {
          "internalType": "uint256",
          "name": "fromTime",
          "type": "uint256"
        },
        {
          "internalType": "uint256",
          "name": "toTime",
          "type": "uint256"
        },
        {
          "internalType": "uint256",
          "name": "months",
          "type": "uint256"
        }
      ],
      "stateMutability": "view",
      "type": "function"
    },
    {
      "inputs": [
        {
          "internalType": "uint256",
          "name": "_tokenId",
          "type": "uint256"
        },
        {
          "internalType": "uint256",
          "name": "_amount",
          "type": "uint256"
        },
        {
          "internalType": "uint16",
          "name": "_months",
          "type": "uint16"
        }
      ],
      "name": "stakeNFTToken",
      "outputs": [],
      "stateMutability": "nonpayable",
      "type": "function"
    },
    {
      "inputs": [],
      "name": "unstakeNFTToken",
      "outputs": [],
      "stateMutability": "payable",
      "type": "function"
    },
    {
      "inputs": [
        {
          "internalType": "address",
          "name": "operator",
          "type": "address"
        },
        {
          "internalType": "address",
          "name": "from",
          "type": "address"
        },
        {
          "internalType": "uint256",
          "name": "id",
          "type": "uint256"
        },
        {
          "internalType": "uint256",
          "name": "value",
          "type": "uint256"
        },
        {
          "internalType": "bytes",
          "name": "data",
          "type": "bytes"
        }
      ],
      "name": "onERC1155Received",
      "outputs": [
        {
          "internalType": "bytes4",
          "name": "",
          "type": "bytes4"
        }
      ],
      "stateMutability": "nonpayable",
      "type": "function"
    }
  ],
  "bytecode": "0x60806040523480156200001157600080fd5b5060405162000f8438038062000f848339818101604052810190620000379190620000ee565b816000806101000a81548173ffffffffffffffffffffffffffffffffffffffff021916908373ffffffffffffffffffffffffffffffffffffffff16021790555080600160006101000a81548173ffffffffffffffffffffffffffffffffffffffff021916908373ffffffffffffffffffffffffffffffffffffffff1602179055505050620001bf565b600081519050620000d1816200018b565b92915050565b600081519050620000e881620001a5565b92915050565b600080604083850312156200010257600080fd5b60006200011285828601620000c0565b92505060206200012585828601620000d7565b9150509250929050565b60006200013c826200016b565b9050919050565b600062000150826200012f565b9050919050565b600062000164826200012f565b9050919050565b600073ffffffffffffffffffffffffffffffffffffffff82169050919050565b620001968162000143565b8114620001a257600080fd5b50565b620001b08162000157565b8114620001bc57600080fd5b50565b610db580620001cf6000396000f3fe6080604052600436106100705760003560e01c806398807d841161004e57806398807d84146100d3578063d06fcba814610114578063f23a6e611461013f578063f7c618c11461017c57610070565b80633197cbb61461007557806339622492146100a05780635d2a360e146100c9575b600080fd5b34801561008157600080fd5b5061008a6101a7565b6040516100979190610a46565b60405180910390f35b3480156100ac57600080fd5b506100c760048036038101906100c29190610831565b6101ad565b005b6100d161030d565b005b3480156100df57600080fd5b506100fa60048036038101906100f59190610776565b6105a3565b60405161010b959493929190610a61565b60405180910390f35b34801561012057600080fd5b506101296105d9565b60405161013691906109d0565b60405180910390f35b34801561014b57600080fd5b506101666004803603810190610161919061079f565b6105fd565b60405161017391906109b5565b60405180910390f35b34801561018857600080fd5b5061019161062c565b60405161019e91906109eb565b60405180910390f35b60025481565b8061ffff1662278d006101c09190610b2c565b62ffffff16426101d09190610ad6565b6002819055506040518060a0016040528084815260200183815260200142815260200160025481526020018261ffff16815250600460003373ffffffffffffffffffffffffffffffffffffffff1673ffffffffffffffffffffffffffffffffffffffff168152602001908152602001600020600082015181600001556020820151816001015560408201518160020155606082015181600301556080820151816004015590505060008054906101000a900473ffffffffffffffffffffffffffffffffffffffff1673ffffffffffffffffffffffffffffffffffffffff1663f242432a333086866040518563ffffffff1660e01b81526004016102d69493929190610934565b600060405180830381600087803b1580156102f057600080fd5b505af1158015610304573d6000803e3d6000fd5b50505050505050565b6000600460003373ffffffffffffffffffffffffffffffffffffffff1673ffffffffffffffffffffffffffffffffffffffff1681526020019081526020016000206001015411610392576040517f08c379a000000000000000000000000000000000000000000000000000000000815260040161038990610a06565b60405180910390fd5b600254600460003373ffffffffffffffffffffffffffffffffffffffff1673ffffffffffffffffffffffffffffffffffffffff1681526020019081526020016000206002015410610418576040517f08c379a000000000000000000000000000000000000000000000000000000000815260040161040f90610a26565b60405180910390fd5b610463600460003373ffffffffffffffffffffffffffffffffffffffff1673ffffffffffffffffffffffffffffffffffffffff16815260200190815260200160002060040154610652565b600160009054906101000a900473ffffffffffffffffffffffffffffffffffffffff1673ffffffffffffffffffffffffffffffffffffffff166340c10f19336003546040518363ffffffff1660e01b81526004016104c292919061098c565b600060405180830381600087803b1580156104dc57600080fd5b505af11580156104f0573d6000803e3d6000fd5b50505050600460003373ffffffffffffffffffffffffffffffffffffffff1673ffffffffffffffffffffffffffffffffffffffff168152602001908152602001600020600080820160009055600182016000905560028201600090556003820160009055600482016000905550503373ffffffffffffffffffffffffffffffffffffffff167f264d1a52a7a35677faa340d648fa9153bbfd66c6c2b9f47d8ef50264a8937d9b60405160405180910390a2565b60046020528060005260406000206000915090508060000154908060010154908060020154908060030154908060040154905085565b60008054906101000a900473ffffffffffffffffffffffffffffffffffffffff1681565b60007ff23a6e612e1ff4830e658fe43f4e3cb4a5f8170bd5d9e69fb5d7a7fa9e4fdf9790509695505050505050565b600160009054906101000a900473ffffffffffffffffffffffffffffffffffffffff1681565b60006001821415610666576005905061067e565b600682141561067857600a905061067d565b600f90505b5b670de0b6b3a76400008161ffff16600460003373ffffffffffffffffffffffffffffffffffffffff1673ffffffffffffffffffffffffffffffffffffffff168152602001908152602001600020600101546106d99190610b69565b6106e39190610b69565b6003819055505050565b6000813590506106fc81610d3a565b92915050565b60008083601f84011261071457600080fd5b8235905067ffffffffffffffff81111561072d57600080fd5b60208301915083600182028301111561074557600080fd5b9250929050565b60008135905061075b81610d51565b92915050565b60008135905061077081610d68565b92915050565b60006020828403121561078857600080fd5b6000610796848285016106ed565b91505092915050565b60008060008060008060a087890312156107b857600080fd5b60006107c689828a016106ed565b96505060206107d789828a016106ed565b95505060406107e889828a01610761565b94505060606107f989828a01610761565b935050608087013567ffffffffffffffff81111561081657600080fd5b61082289828a01610702565b92509250509295509295509295565b60008060006060848603121561084657600080fd5b600061085486828701610761565b935050602061086586828701610761565b92505060406108768682870161074c565b9150509250925092565b61088981610bc3565b82525050565b61089881610bd5565b82525050565b6108a781610c48565b82525050565b6108b681610c6c565b82525050565b60006108c9601e83610ac5565b91506108d482610cbf565b602082019050919050565b60006108ec600083610ab4565b91506108f782610ce8565b600082019050919050565b600061090f602383610ac5565b915061091a82610ceb565b604082019050919050565b61092e81610c3e565b82525050565b600060a0820190506109496000830187610880565b6109566020830186610880565b6109636040830185610925565b6109706060830184610925565b8181036080830152610981816108df565b905095945050505050565b60006040820190506109a16000830185610880565b6109ae6020830184610925565b9392505050565b60006020820190506109ca600083018461088f565b92915050565b60006020820190506109e5600083018461089e565b92915050565b6000602082019050610a0060008301846108ad565b92915050565b60006020820190508181036000830152610a1f816108bc565b9050919050565b60006020820190508181036000830152610a3f81610902565b9050919050565b6000602082019050610a5b6000830184610925565b92915050565b600060a082019050610a766000830188610925565b610a836020830187610925565b610a906040830186610925565b610a9d6060830185610925565b610aaa6080830184610925565b9695505050505050565b600082825260208201905092915050565b600082825260208201905092915050565b6000610ae182610c3e565b9150610aec83610c3e565b9250827fffffffffffffffffffffffffffffffffffffffffffffffffffffffffffffffff03821115610b2157610b20610c90565b5b828201905092915050565b6000610b3782610c2f565b9150610b4283610c2f565b92508162ffffff0483118215151615610b5e57610b5d610c90565b5b828202905092915050565b6000610b7482610c3e565b9150610b7f83610c3e565b9250817fffffffffffffffffffffffffffffffffffffffffffffffffffffffffffffffff0483118215151615610bb857610bb7610c90565b5b828202905092915050565b6000610bce82610c0f565b9050919050565b60007fffffffff0000000000000000000000000000000000000000000000000000000082169050919050565b600061ffff82169050919050565b600073ffffffffffffffffffffffffffffffffffffffff82169050919050565b600062ffffff82169050919050565b6000819050919050565b6000610c5382610c5a565b9050919050565b6000610c6582610c0f565b9050919050565b6000610c7782610c7e565b9050919050565b6000610c8982610c0f565b9050919050565b7f4e487b7100000000000000000000000000000000000000000000000000000000600052601160045260246000fd5b7f596f7520646f6e2774206861766520616e79204e465420737461636b65640000600082015250565b50565b7f4e6f7420616c6c6f77656420746f20756e737461636b65206265666f7265207460008201527f696d650000000000000000000000000000000000000000000000000000000000602082015250565b610d4381610bc3565b8114610d4e57600080fd5b50565b610d5a81610c01565b8114610d6557600080fd5b50565b610d7181610c3e565b8114610d7c57600080fd5b5056fea264697066735822122003db7d645f70d7e656539d8fb9b8b28d2cb525997ebd9c5ead58b5923fa8c66b64736f6c63430008040033",
  "immutableReferences": {},
  "source": "// SPDX-License-Identifier: MIT\npragma solidity >=0.7.0 <0.9.0;\n\nimport \"./WarWeapon.sol\";\nimport \"./Warcoin.sol\";\n\ncontract Stacking {\n    WarWeapon public nftToken;\n    Warcoin public rewardToken;\n    uint256 public endTime;\n    uint256 rewardPrice;\n\n    event nftStaked(address indexed _from, uint256 _tokenId, uint256 _amount);\n    event nftUnstaked(address indexed _from);\n\n    struct Stake {\n        uint256 tokenId;\n        uint256 amount;\n        uint256 fromTime;\n        uint256 toTime;\n        uint256 months;\n    }\n    mapping(address => Stake) public staked;\n\n    constructor(WarWeapon _nftaddress, Warcoin _rewardToken) {\n        nftToken = _nftaddress;\n        rewardToken = _rewardToken;\n    }\n\n    // Function to stake token (where _months should be 1, 6 or 12)\n    function stakeNFTToken(\n        uint256 _tokenId,\n        uint256 _amount,\n        uint16 _months\n    ) public {\n        endTime = block.timestamp + (30 days * _months);\n        staked[msg.sender] = Stake(\n            _tokenId,\n            _amount,\n            block.timestamp,\n            endTime,\n            _months\n        );\n        nftToken.safeTransferFrom(\n            msg.sender,\n            address(this),\n            _tokenId,\n            _amount,\n            \"\"\n        );\n    }\n\n    // Function to unstake nft and recieve reward token\n    function unstakeNFTToken() public payable {\n        require(\n            staked[msg.sender].amount > 0,\n            \"You don't have any NFT stacked\"\n        );\n        require(\n            staked[msg.sender].fromTime < endTime,\n            \"Not allowed to unstacke before time\"\n        );\n        calculatedPrice(staked[msg.sender].months);\n        rewardToken.mint(msg.sender, rewardPrice);\n        delete staked[msg.sender];\n        emit nftUnstaked(msg.sender);\n    }\n\n    // Calculate reward price\n    function calculatedPrice(uint256 _months) internal {\n        uint16 basicPercent;\n        if (_months == 1) {\n            basicPercent = 5;\n        } else if (_months == 6) {\n            basicPercent = 10;\n        } else {\n            basicPercent = 15;\n        }\n        rewardPrice = (staked[msg.sender].amount * basicPercent) * 10**18;\n    }\n\n    // Function to make contract eligible to store ERC1155 standarde token\n    function onERC1155Received(\n        address operator,\n        address from,\n        uint256 id,\n        uint256 value,\n        bytes calldata data\n    ) external returns (bytes4) {\n        return\n            bytes4(\n                keccak256(\n                    \"onERC1155Received(address,address,uint256,uint256,bytes)\"\n                )\n            );\n    }\n}\n",
  "sourcePath": "/Users/mohitchandel/Documents/work/NFTStacking/contracts/Stacking.sol",
  "compiler": {
    "name": "solc",
    "version": "0.8.4+commit.c7e474f2.Emscripten.clang"
  },
  "schemaVersion": "3.4.4",
  "updatedAt": "2022-04-04T11:27:02.457Z",
  "devdoc": {
    "kind": "dev",
    "methods": {},
    "version": 1
  },
  "userdoc": {
    "kind": "user",
    "methods": {},
    "version": 1
  }
}