{
  "contractName": "WarWeapon",
  "abi": [
    {
      "inputs": [],
      "stateMutability": "nonpayable",
      "type": "constructor"
    },
    {
      "anonymous": false,
      "inputs": [
        {
          "indexed": true,
          "internalType": "address",
          "name": "account",
          "type": "address"
        },
        {
          "indexed": true,
          "internalType": "address",
          "name": "operator",
          "type": "address"
        },
        {
          "indexed": false,
          "internalType": "bool",
          "name": "approved",
          "type": "bool"
        }
      ],
      "name": "ApprovalForAll",
      "type": "event"
    },
    {
      "anonymous": false,
      "inputs": [
        {
          "indexed": true,
          "internalType": "address",
          "name": "previousOwner",
          "type": "address"
        },
        {
          "indexed": true,
          "internalType": "address",
          "name": "newOwner",
          "type": "address"
        }
      ],
      "name": "OwnershipTransferred",
      "type": "event"
    },
    {
      "anonymous": false,
      "inputs": [
        {
          "indexed": true,
          "internalType": "address",
          "name": "operator",
          "type": "address"
        },
        {
          "indexed": true,
          "internalType": "address",
          "name": "from",
          "type": "address"
        },
        {
          "indexed": true,
          "internalType": "address",
          "name": "to",
          "type": "address"
        },
        {
          "indexed": false,
          "internalType": "uint256[]",
          "name": "ids",
          "type": "uint256[]"
        },
        {
          "indexed": false,
          "internalType": "uint256[]",
          "name": "values",
          "type": "uint256[]"
        }
      ],
      "name": "TransferBatch",
      "type": "event"
    },
    {
      "anonymous": false,
      "inputs": [
        {
          "indexed": true,
          "internalType": "address",
          "name": "operator",
          "type": "address"
        },
        {
          "indexed": true,
          "internalType": "address",
          "name": "from",
          "type": "address"
        },
        {
          "indexed": true,
          "internalType": "address",
          "name": "to",
          "type": "address"
        },
        {
          "indexed": false,
          "internalType": "uint256",
          "name": "id",
          "type": "uint256"
        },
        {
          "indexed": false,
          "internalType": "uint256",
          "name": "value",
          "type": "uint256"
        }
      ],
      "name": "TransferSingle",
      "type": "event"
    },
    {
      "anonymous": false,
      "inputs": [
        {
          "indexed": false,
          "internalType": "string",
          "name": "value",
          "type": "string"
        },
        {
          "indexed": true,
          "internalType": "uint256",
          "name": "id",
          "type": "uint256"
        }
      ],
      "name": "URI",
      "type": "event"
    },
    {
      "inputs": [
        {
          "internalType": "address",
          "name": "account",
          "type": "address"
        },
        {
          "internalType": "uint256",
          "name": "id",
          "type": "uint256"
        }
      ],
      "name": "balanceOf",
      "outputs": [
        {
          "internalType": "uint256",
          "name": "",
          "type": "uint256"
        }
      ],
      "stateMutability": "view",
      "type": "function"
    },
    {
      "inputs": [
        {
          "internalType": "address[]",
          "name": "accounts",
          "type": "address[]"
        },
        {
          "internalType": "uint256[]",
          "name": "ids",
          "type": "uint256[]"
        }
      ],
      "name": "balanceOfBatch",
      "outputs": [
        {
          "internalType": "uint256[]",
          "name": "",
          "type": "uint256[]"
        }
      ],
      "stateMutability": "view",
      "type": "function"
    },
    {
      "inputs": [
        {
          "internalType": "address",
          "name": "account",
          "type": "address"
        },
        {
          "internalType": "uint256",
          "name": "id",
          "type": "uint256"
        },
        {
          "internalType": "uint256",
          "name": "value",
          "type": "uint256"
        }
      ],
      "name": "burn",
      "outputs": [],
      "stateMutability": "nonpayable",
      "type": "function"
    },
    {
      "inputs": [
        {
          "internalType": "address",
          "name": "account",
          "type": "address"
        },
        {
          "internalType": "uint256[]",
          "name": "ids",
          "type": "uint256[]"
        },
        {
          "internalType": "uint256[]",
          "name": "values",
          "type": "uint256[]"
        }
      ],
      "name": "burnBatch",
      "outputs": [],
      "stateMutability": "nonpayable",
      "type": "function"
    },
    {
      "inputs": [],
      "name": "gun",
      "outputs": [
        {
          "internalType": "uint256",
          "name": "",
          "type": "uint256"
        }
      ],
      "stateMutability": "view",
      "type": "function"
    },
    {
      "inputs": [
        {
          "internalType": "address",
          "name": "account",
          "type": "address"
        },
        {
          "internalType": "address",
          "name": "operator",
          "type": "address"
        }
      ],
      "name": "isApprovedForAll",
      "outputs": [
        {
          "internalType": "bool",
          "name": "",
          "type": "bool"
        }
      ],
      "stateMutability": "view",
      "type": "function"
    },
    {
      "inputs": [],
      "name": "knife",
      "outputs": [
        {
          "internalType": "uint256",
          "name": "",
          "type": "uint256"
        }
      ],
      "stateMutability": "view",
      "type": "function"
    },
    {
      "inputs": [],
      "name": "owner",
      "outputs": [
        {
          "internalType": "address",
          "name": "",
          "type": "address"
        }
      ],
      "stateMutability": "view",
      "type": "function"
    },
    {
      "inputs": [],
      "name": "renounceOwnership",
      "outputs": [],
      "stateMutability": "nonpayable",
      "type": "function"
    },
    {
      "inputs": [
        {
          "internalType": "address",
          "name": "from",
          "type": "address"
        },
        {
          "internalType": "address",
          "name": "to",
          "type": "address"
        },
        {
          "internalType": "uint256[]",
          "name": "ids",
          "type": "uint256[]"
        },
        {
          "internalType": "uint256[]",
          "name": "amounts",
          "type": "uint256[]"
        },
        {
          "internalType": "bytes",
          "name": "data",
          "type": "bytes"
        }
      ],
      "name": "safeBatchTransferFrom",
      "outputs": [],
      "stateMutability": "nonpayable",
      "type": "function"
    },
    {
      "inputs": [
        {
          "internalType": "address",
          "name": "from",
          "type": "address"
        },
        {
          "internalType": "address",
          "name": "to",
          "type": "address"
        },
        {
          "internalType": "uint256",
          "name": "id",
          "type": "uint256"
        },
        {
          "internalType": "uint256",
          "name": "amount",
          "type": "uint256"
        },
        {
          "internalType": "bytes",
          "name": "data",
          "type": "bytes"
        }
      ],
      "name": "safeTransferFrom",
      "outputs": [],
      "stateMutability": "nonpayable",
      "type": "function"
    },
    {
      "inputs": [
        {
          "internalType": "address",
          "name": "operator",
          "type": "address"
        },
        {
          "internalType": "bool",
          "name": "approved",
          "type": "bool"
        }
      ],
      "name": "setApprovalForAll",
      "outputs": [],
      "stateMutability": "nonpayable",
      "type": "function"
    },
    {
      "inputs": [
        {
          "internalType": "bytes4",
          "name": "interfaceId",
          "type": "bytes4"
        }
      ],
      "name": "supportsInterface",
      "outputs": [
        {
          "internalType": "bool",
          "name": "",
          "type": "bool"
        }
      ],
      "stateMutability": "view",
      "type": "function"
    },
    {
      "inputs": [],
      "name": "sword",
      "outputs": [
        {
          "internalType": "uint256",
          "name": "",
          "type": "uint256"
        }
      ],
      "stateMutability": "view",
      "type": "function"
    },
    {
      "inputs": [
        {
          "internalType": "address",
          "name": "newOwner",
          "type": "address"
        }
      ],
      "name": "transferOwnership",
      "outputs": [],
      "stateMutability": "nonpayable",
      "type": "function"
    },
    {
      "inputs": [
        {
          "internalType": "uint256",
          "name": "",
          "type": "uint256"
        }
      ],
      "name": "uri",
      "outputs": [
        {
          "internalType": "string",
          "name": "",
          "type": "string"
        }
      ],
      "stateMutability": "view",
      "type": "function"
    },
    {
      "inputs": [
        {
          "internalType": "string",
          "name": "newuri",
          "type": "string"
        }
      ],
      "name": "setURI",
      "outputs": [],
      "stateMutability": "nonpayable",
      "type": "function"
    }
  ],
  "bytecode": "0x60806040523480156200001157600080fd5b506040518060600160405280602a8152602001620043c7602a91396200003d81620000d260201b60201c565b506200005e62000052620000ee60201b60201c565b620000f660201b60201c565b62000083336000600260405180602001604052806000815250620001bc60201b60201c565b620000a733600a8060405180602001604052806000815250620001bc60201b60201c565b620000cc336001601460405180602001604052806000815250620001bc60201b60201c565b62000dca565b8060029080519060200190620000ea9291906200067f565b5050565b600033905090565b6000600360009054906101000a900473ffffffffffffffffffffffffffffffffffffffff16905081600360006101000a81548173ffffffffffffffffffffffffffffffffffffffff021916908373ffffffffffffffffffffffffffffffffffffffff1602179055508173ffffffffffffffffffffffffffffffffffffffff168173ffffffffffffffffffffffffffffffffffffffff167f8be0079c531659141344cd1fd0a4f28419497f9722a3daafe3b4186f6b6457e060405160405180910390a35050565b600073ffffffffffffffffffffffffffffffffffffffff168473ffffffffffffffffffffffffffffffffffffffff1614156200022f576040517f08c379a0000000000000000000000000000000000000000000000000000000008152600401620002269062000957565b60405180910390fd5b600062000241620000ee60201b60201c565b90506200027a816000876200025c886200038160201b60201c565b6200026d886200038160201b60201c565b876200044a60201b60201c565b8260008086815260200190815260200160002060008773ffffffffffffffffffffffffffffffffffffffff1673ffffffffffffffffffffffffffffffffffffffff1681526020019081526020016000206000828254620002db9190620009e8565b925050819055508473ffffffffffffffffffffffffffffffffffffffff16600073ffffffffffffffffffffffffffffffffffffffff168273ffffffffffffffffffffffffffffffffffffffff167fc3d58168c5ae7397731d063d5bbf3d657854427343f4c083240f7aacaa2d0f6287876040516200035b92919062000979565b60405180910390a46200037a816000878787876200045260201b60201c565b5050505050565b60606000600167ffffffffffffffff811115620003c7577f4e487b7100000000000000000000000000000000000000000000000000000000600052604160045260246000fd5b604051908082528060200260200182016040528015620003f65781602001602082028036833780820191505090505b509050828160008151811062000435577f4e487b7100000000000000000000000000000000000000000000000000000000600052603260045260246000fd5b60200260200101818152505080915050919050565b505050505050565b6200047e8473ffffffffffffffffffffffffffffffffffffffff166200065c60201b62000c9c1760201c565b1562000654578373ffffffffffffffffffffffffffffffffffffffff1663f23a6e6187878686866040518663ffffffff1660e01b8152600401620004c79594939291906200088b565b602060405180830381600087803b158015620004e257600080fd5b505af19250505080156200051657506040513d601f19601f8201168201806040525081019062000513919062000746565b60015b620005c8576200052562000bde565b806308c379a014156200058957506200053d62000d0e565b806200054a57506200058b565b806040517f08c379a0000000000000000000000000000000000000000000000000000000008152600401620005809190620008ef565b60405180910390fd5b505b6040517f08c379a0000000000000000000000000000000000000000000000000000000008152600401620005bf9062000913565b60405180910390fd5b63f23a6e6160e01b7bffffffffffffffffffffffffffffffffffffffffffffffffffffffff1916817bffffffffffffffffffffffffffffffffffffffffffffffffffffffff19161462000652576040517f08c379a0000000000000000000000000000000000000000000000000000000008152600401620006499062000935565b60405180910390fd5b505b505050505050565b6000808273ffffffffffffffffffffffffffffffffffffffff163b119050919050565b8280546200068d9062000ae5565b90600052602060002090601f016020900481019282620006b15760008555620006fd565b82601f10620006cc57805160ff1916838001178555620006fd565b82800160010185558215620006fd579182015b82811115620006fc578251825591602001919060010190620006df565b5b5090506200070c919062000710565b5090565b5b808211156200072b57600081600090555060010162000711565b5090565b600081519050620007408162000db0565b92915050565b6000602082840312156200075957600080fd5b600062000769848285016200072f565b91505092915050565b6200077d8162000a45565b82525050565b60006200079082620009b0565b6200079c8185620009c6565b9350620007ae81856020860162000aaf565b620007b98162000c03565b840191505092915050565b6000620007d182620009bb565b620007dd8185620009d7565b9350620007ef81856020860162000aaf565b620007fa8162000c03565b840191505092915050565b600062000814603483620009d7565b9150620008218262000c21565b604082019050919050565b60006200083b602883620009d7565b9150620008488262000c70565b604082019050919050565b600062000862602183620009d7565b91506200086f8262000cbf565b604082019050919050565b620008858162000aa5565b82525050565b600060a082019050620008a2600083018862000772565b620008b1602083018762000772565b620008c060408301866200087a565b620008cf60608301856200087a565b8181036080830152620008e3818462000783565b90509695505050505050565b600060208201905081810360008301526200090b8184620007c4565b905092915050565b600060208201905081810360008301526200092e8162000805565b9050919050565b6000602082019050818103600083015262000950816200082c565b9050919050565b60006020820190508181036000830152620009728162000853565b9050919050565b60006040820190506200099060008301856200087a565b6200099f60208301846200087a565b9392505050565b6000604051905090565b600081519050919050565b600081519050919050565b600082825260208201905092915050565b600082825260208201905092915050565b6000620009f58262000aa5565b915062000a028362000aa5565b9250827fffffffffffffffffffffffffffffffffffffffffffffffffffffffffffffffff0382111562000a3a5762000a3962000b51565b5b828201905092915050565b600062000a528262000a85565b9050919050565b60007fffffffff0000000000000000000000000000000000000000000000000000000082169050919050565b600073ffffffffffffffffffffffffffffffffffffffff82169050919050565b6000819050919050565b60005b8381101562000acf57808201518184015260208101905062000ab2565b8381111562000adf576000848401525b50505050565b6000600282049050600182168062000afe57607f821691505b6020821081141562000b155762000b1462000b80565b5b50919050565b62000b268262000c03565b810181811067ffffffffffffffff8211171562000b485762000b4762000baf565b5b80604052505050565b7f4e487b7100000000000000000000000000000000000000000000000000000000600052601160045260246000fd5b7f4e487b7100000000000000000000000000000000000000000000000000000000600052602260045260246000fd5b7f4e487b7100000000000000000000000000000000000000000000000000000000600052604160045260246000fd5b600060033d111562000c005760046000803e62000bfd60005162000c14565b90505b90565b6000601f19601f8301169050919050565b60008160e01c9050919050565b7f455243313135353a207472616e7366657220746f206e6f6e204552433131353560008201527f526563656976657220696d706c656d656e746572000000000000000000000000602082015250565b7f455243313135353a204552433131353552656365697665722072656a6563746560008201527f6420746f6b656e73000000000000000000000000000000000000000000000000602082015250565b7f455243313135353a206d696e7420746f20746865207a65726f2061646472657360008201527f7300000000000000000000000000000000000000000000000000000000000000602082015250565b600060443d101562000d205762000dad565b62000d2a620009a6565b60043d036004823e80513d602482011167ffffffffffffffff8211171562000d5457505062000dad565b808201805167ffffffffffffffff81111562000d74575050505062000dad565b80602083010160043d03850181111562000d9357505050505062000dad565b62000da48260200185018662000b1b565b82955050505050505b90565b62000dbb8162000a59565b811462000dc757600080fd5b50565b6135ed8062000dda6000396000f3fe608060405234801561001057600080fd5b506004361061010a5760003560e01c80636b20c454116100a2578063a22cb46511610071578063a22cb465146102a5578063e985e9c5146102c1578063f242432a146102f1578063f2fde38b1461030d578063f5298aca146103295761010a565b80636b20c45414610243578063715018a61461025f5780638240242f146102695780638da5cb5b146102875761010a565b806317993f43116100de57806317993f43146101bb5780631d8a1ab5146101d95780632eb2c2d6146101f75780634e1273f4146102135761010a565b8062fdd58e1461010f57806301ffc9a71461013f57806302fe53051461016f5780630e89341c1461018b575b600080fd5b6101296004803603810190610124919061248c565b610345565b6040516101369190612c80565b60405180910390f35b61015960048036038101906101549190612583565b61040e565b6040516101669190612a83565b60405180910390f35b610189600480360381019061018491906125d5565b6104f0565b005b6101a560048036038101906101a09190612616565b610578565b6040516101b29190612a9e565b60405180910390f35b6101c361060c565b6040516101d09190612c80565b60405180910390f35b6101e1610611565b6040516101ee9190612c80565b60405180910390f35b610211600480360381019061020c9190612283565b610616565b005b61022d60048036038101906102289190612517565b6106b7565b60405161023a9190612a2a565b60405180910390f35b61025d600480360381019061025891906123d1565b610868565b005b610267610905565b005b61027161098d565b60405161027e9190612c80565b60405180910390f35b61028f610992565b60405161029c919061294d565b60405180910390f35b6102bf60048036038101906102ba9190612450565b6109bc565b005b6102db60048036038101906102d69190612247565b6109d2565b6040516102e89190612a83565b60405180910390f35b61030b60048036038101906103069190612342565b610a66565b005b6103276004803603810190610322919061221e565b610b07565b005b610343600480360381019061033e91906124c8565b610bff565b005b60008073ffffffffffffffffffffffffffffffffffffffff168373ffffffffffffffffffffffffffffffffffffffff1614156103b6576040517f08c379a00000000000000000000000000000000000000000000000000000000081526004016103ad90612b00565b60405180910390fd5b60008083815260200190815260200160002060008473ffffffffffffffffffffffffffffffffffffffff1673ffffffffffffffffffffffffffffffffffffffff16815260200190815260200160002054905092915050565b60007fd9b67a26000000000000000000000000000000000000000000000000000000007bffffffffffffffffffffffffffffffffffffffffffffffffffffffff1916827bffffffffffffffffffffffffffffffffffffffffffffffffffffffff191614806104d957507f0e89341c000000000000000000000000000000000000000000000000000000007bffffffffffffffffffffffffffffffffffffffffffffffffffffffff1916827bffffffffffffffffffffffffffffffffffffffffffffffffffffffff1916145b806104e957506104e882610cbf565b5b9050919050565b6104f8610d29565b73ffffffffffffffffffffffffffffffffffffffff16610516610992565b73ffffffffffffffffffffffffffffffffffffffff161461056c576040517f08c379a000000000000000000000000000000000000000000000000000000000815260040161056390612c00565b60405180910390fd5b61057581610d31565b50565b60606002805461058790612f20565b80601f01602080910402602001604051908101604052809291908181526020018280546105b390612f20565b80156106005780601f106105d557610100808354040283529160200191610600565b820191906000526020600020905b8154815290600101906020018083116105e357829003601f168201915b50505050509050919050565b600a81565b600181565b61061e610d29565b73ffffffffffffffffffffffffffffffffffffffff168573ffffffffffffffffffffffffffffffffffffffff16148061066457506106638561065e610d29565b6109d2565b5b6106a3576040517f08c379a000000000000000000000000000000000000000000000000000000000815260040161069a90612ba0565b60405180910390fd5b6106b08585858585610d4b565b5050505050565b606081518351146106fd576040517f08c379a00000000000000000000000000000000000000000000000000000000081526004016106f490612c40565b60405180910390fd5b6000835167ffffffffffffffff811115610740577f4e487b7100000000000000000000000000000000000000000000000000000000600052604160045260246000fd5b60405190808252806020026020018201604052801561076e5781602001602082028036833780820191505090505b50905060005b845181101561085d576108078582815181106107b9577f4e487b7100000000000000000000000000000000000000000000000000000000600052603260045260246000fd5b60200260200101518583815181106107fa577f4e487b7100000000000000000000000000000000000000000000000000000000600052603260045260246000fd5b6020026020010151610345565b828281518110610840577f4e487b7100000000000000000000000000000000000000000000000000000000600052603260045260246000fd5b6020026020010181815250508061085690612f83565b9050610774565b508091505092915050565b610870610d29565b73ffffffffffffffffffffffffffffffffffffffff168373ffffffffffffffffffffffffffffffffffffffff1614806108b657506108b5836108b0610d29565b6109d2565b5b6108f5576040517f08c379a00000000000000000000000000000000000000000000000000000000081526004016108ec90612b60565b60405180910390fd5b6109008383836110ab565b505050565b61090d610d29565b73ffffffffffffffffffffffffffffffffffffffff1661092b610992565b73ffffffffffffffffffffffffffffffffffffffff1614610981576040517f08c379a000000000000000000000000000000000000000000000000000000000815260040161097890612c00565b60405180910390fd5b61098b60006113a8565b565b600081565b6000600360009054906101000a900473ffffffffffffffffffffffffffffffffffffffff16905090565b6109ce6109c7610d29565b838361146e565b5050565b6000600160008473ffffffffffffffffffffffffffffffffffffffff1673ffffffffffffffffffffffffffffffffffffffff16815260200190815260200160002060008373ffffffffffffffffffffffffffffffffffffffff1673ffffffffffffffffffffffffffffffffffffffff16815260200190815260200160002060009054906101000a900460ff16905092915050565b610a6e610d29565b73ffffffffffffffffffffffffffffffffffffffff168573ffffffffffffffffffffffffffffffffffffffff161480610ab45750610ab385610aae610d29565b6109d2565b5b610af3576040517f08c379a0000000000000000000000000000000000000000000000000000000008152600401610aea90612b60565b60405180910390fd5b610b0085858585856115db565b5050505050565b610b0f610d29565b73ffffffffffffffffffffffffffffffffffffffff16610b2d610992565b73ffffffffffffffffffffffffffffffffffffffff1614610b83576040517f08c379a0000000000000000000000000000000000000000000000000000000008152600401610b7a90612c00565b60405180910390fd5b600073ffffffffffffffffffffffffffffffffffffffff168173ffffffffffffffffffffffffffffffffffffffff161415610bf3576040517f08c379a0000000000000000000000000000000000000000000000000000000008152600401610bea90612b20565b60405180910390fd5b610bfc816113a8565b50565b610c07610d29565b73ffffffffffffffffffffffffffffffffffffffff168373ffffffffffffffffffffffffffffffffffffffff161480610c4d5750610c4c83610c47610d29565b6109d2565b5b610c8c576040517f08c379a0000000000000000000000000000000000000000000000000000000008152600401610c8390612b60565b60405180910390fd5b610c9783838361185d565b505050565b6000808273ffffffffffffffffffffffffffffffffffffffff163b119050919050565b60007f01ffc9a7000000000000000000000000000000000000000000000000000000007bffffffffffffffffffffffffffffffffffffffffffffffffffffffff1916827bffffffffffffffffffffffffffffffffffffffffffffffffffffffff1916149050919050565b600033905090565b8060029080519060200190610d47929190611f16565b5050565b8151835114610d8f576040517f08c379a0000000000000000000000000000000000000000000000000000000008152600401610d8690612c60565b60405180910390fd5b600073ffffffffffffffffffffffffffffffffffffffff168473ffffffffffffffffffffffffffffffffffffffff161415610dff576040517f08c379a0000000000000000000000000000000000000000000000000000000008152600401610df690612b80565b60405180910390fd5b6000610e09610d29565b9050610e19818787878787611a7a565b60005b8451811015611016576000858281518110610e60577f4e487b7100000000000000000000000000000000000000000000000000000000600052603260045260246000fd5b602002602001015190506000858381518110610ea5577f4e487b7100000000000000000000000000000000000000000000000000000000600052603260045260246000fd5b60200260200101519050600080600084815260200190815260200160002060008b73ffffffffffffffffffffffffffffffffffffffff1673ffffffffffffffffffffffffffffffffffffffff16815260200190815260200160002054905081811015610f46576040517f08c379a0000000000000000000000000000000000000000000000000000000008152600401610f3d90612be0565b60405180910390fd5b81810360008085815260200190815260200160002060008c73ffffffffffffffffffffffffffffffffffffffff1673ffffffffffffffffffffffffffffffffffffffff168152602001908152602001600020819055508160008085815260200190815260200160002060008b73ffffffffffffffffffffffffffffffffffffffff1673ffffffffffffffffffffffffffffffffffffffff1681526020019081526020016000206000828254610ffb9190612e14565b925050819055505050508061100f90612f83565b9050610e1c565b508473ffffffffffffffffffffffffffffffffffffffff168673ffffffffffffffffffffffffffffffffffffffff168273ffffffffffffffffffffffffffffffffffffffff167f4a39dc06d4c0dbc64b70af90fd698a233a518aa5d07e595d983b8c0526c8f7fb878760405161108d929190612a4c565b60405180910390a46110a3818787878787611a82565b505050505050565b600073ffffffffffffffffffffffffffffffffffffffff168373ffffffffffffffffffffffffffffffffffffffff16141561111b576040517f08c379a000000000000000000000000000000000000000000000000000000000815260040161111290612bc0565b60405180910390fd5b805182511461115f576040517f08c379a000000000000000000000000000000000000000000000000000000000815260040161115690612c60565b60405180910390fd5b6000611169610d29565b905061118981856000868660405180602001604052806000815250611a7a565b60005b83518110156113225760008482815181106111d0577f4e487b7100000000000000000000000000000000000000000000000000000000600052603260045260246000fd5b602002602001015190506000848381518110611215577f4e487b7100000000000000000000000000000000000000000000000000000000600052603260045260246000fd5b60200260200101519050600080600084815260200190815260200160002060008973ffffffffffffffffffffffffffffffffffffffff1673ffffffffffffffffffffffffffffffffffffffff168152602001908152602001600020549050818110156112b6576040517f08c379a00000000000000000000000000000000000000000000000000000000081526004016112ad90612b40565b60405180910390fd5b81810360008085815260200190815260200160002060008a73ffffffffffffffffffffffffffffffffffffffff1673ffffffffffffffffffffffffffffffffffffffff16815260200190815260200160002081905550505050808061131a90612f83565b91505061118c565b50600073ffffffffffffffffffffffffffffffffffffffff168473ffffffffffffffffffffffffffffffffffffffff168273ffffffffffffffffffffffffffffffffffffffff167f4a39dc06d4c0dbc64b70af90fd698a233a518aa5d07e595d983b8c0526c8f7fb868660405161139a929190612a4c565b60405180910390a450505050565b6000600360009054906101000a900473ffffffffffffffffffffffffffffffffffffffff16905081600360006101000a81548173ffffffffffffffffffffffffffffffffffffffff021916908373ffffffffffffffffffffffffffffffffffffffff1602179055508173ffffffffffffffffffffffffffffffffffffffff168173ffffffffffffffffffffffffffffffffffffffff167f8be0079c531659141344cd1fd0a4f28419497f9722a3daafe3b4186f6b6457e060405160405180910390a35050565b8173ffffffffffffffffffffffffffffffffffffffff168373ffffffffffffffffffffffffffffffffffffffff1614156114dd576040517f08c379a00000000000000000000000000000000000000000000000000000000081526004016114d490612c20565b60405180910390fd5b80600160008573ffffffffffffffffffffffffffffffffffffffff1673ffffffffffffffffffffffffffffffffffffffff16815260200190815260200160002060008473ffffffffffffffffffffffffffffffffffffffff1673ffffffffffffffffffffffffffffffffffffffff16815260200190815260200160002060006101000a81548160ff0219169083151502179055508173ffffffffffffffffffffffffffffffffffffffff168373ffffffffffffffffffffffffffffffffffffffff167f17307eab39ab6107e8899845ad3d59bd9653f200f220920489ca2b5937696c31836040516115ce9190612a83565b60405180910390a3505050565b600073ffffffffffffffffffffffffffffffffffffffff168473ffffffffffffffffffffffffffffffffffffffff16141561164b576040517f08c379a000000000000000000000000000000000000000000000000000000000815260040161164290612b80565b60405180910390fd5b6000611655610d29565b905061167581878761166688611c69565b61166f88611c69565b87611a7a565b600080600086815260200190815260200160002060008873ffffffffffffffffffffffffffffffffffffffff1673ffffffffffffffffffffffffffffffffffffffff1681526020019081526020016000205490508381101561170c576040517f08c379a000000000000000000000000000000000000000000000000000000000815260040161170390612be0565b60405180910390fd5b83810360008087815260200190815260200160002060008973ffffffffffffffffffffffffffffffffffffffff1673ffffffffffffffffffffffffffffffffffffffff168152602001908152602001600020819055508360008087815260200190815260200160002060008873ffffffffffffffffffffffffffffffffffffffff1673ffffffffffffffffffffffffffffffffffffffff16815260200190815260200160002060008282546117c19190612e14565b925050819055508573ffffffffffffffffffffffffffffffffffffffff168773ffffffffffffffffffffffffffffffffffffffff168373ffffffffffffffffffffffffffffffffffffffff167fc3d58168c5ae7397731d063d5bbf3d657854427343f4c083240f7aacaa2d0f62888860405161183e929190612c9b565b60405180910390a4611854828888888888611d2f565b50505050505050565b600073ffffffffffffffffffffffffffffffffffffffff168373ffffffffffffffffffffffffffffffffffffffff1614156118cd576040517f08c379a00000000000000000000000000000000000000000000000000000000081526004016118c490612bc0565b60405180910390fd5b60006118d7610d29565b9050611907818560006118e987611c69565b6118f287611c69565b60405180602001604052806000815250611a7a565b600080600085815260200190815260200160002060008673ffffffffffffffffffffffffffffffffffffffff1673ffffffffffffffffffffffffffffffffffffffff1681526020019081526020016000205490508281101561199e576040517f08c379a000000000000000000000000000000000000000000000000000000000815260040161199590612b40565b60405180910390fd5b82810360008086815260200190815260200160002060008773ffffffffffffffffffffffffffffffffffffffff1673ffffffffffffffffffffffffffffffffffffffff16815260200190815260200160002081905550600073ffffffffffffffffffffffffffffffffffffffff168573ffffffffffffffffffffffffffffffffffffffff168373ffffffffffffffffffffffffffffffffffffffff167fc3d58168c5ae7397731d063d5bbf3d657854427343f4c083240f7aacaa2d0f628787604051611a6b929190612c9b565b60405180910390a45050505050565b505050505050565b611aa18473ffffffffffffffffffffffffffffffffffffffff16610c9c565b15611c61578373ffffffffffffffffffffffffffffffffffffffff1663bc197c8187878686866040518663ffffffff1660e01b8152600401611ae7959493929190612968565b602060405180830381600087803b158015611b0157600080fd5b505af1925050508015611b3257506040513d601f19601f82011682018060405250810190611b2f91906125ac565b60015b611bd857611b3e613059565b806308c379a01415611b9b5750611b536134c5565b80611b5e5750611b9d565b806040517f08c379a0000000000000000000000000000000000000000000000000000000008152600401611b929190612a9e565b60405180910390fd5b505b6040517f08c379a0000000000000000000000000000000000000000000000000000000008152600401611bcf90612ac0565b60405180910390fd5b63bc197c8160e01b7bffffffffffffffffffffffffffffffffffffffffffffffffffffffff1916817bffffffffffffffffffffffffffffffffffffffffffffffffffffffff191614611c5f576040517f08c379a0000000000000000000000000000000000000000000000000000000008152600401611c5690612ae0565b60405180910390fd5b505b505050505050565b60606000600167ffffffffffffffff811115611cae577f4e487b7100000000000000000000000000000000000000000000000000000000600052604160045260246000fd5b604051908082528060200260200182016040528015611cdc5781602001602082028036833780820191505090505b5090508281600081518110611d1a577f4e487b7100000000000000000000000000000000000000000000000000000000600052603260045260246000fd5b60200260200101818152505080915050919050565b611d4e8473ffffffffffffffffffffffffffffffffffffffff16610c9c565b15611f0e578373ffffffffffffffffffffffffffffffffffffffff1663f23a6e6187878686866040518663ffffffff1660e01b8152600401611d949594939291906129d0565b602060405180830381600087803b158015611dae57600080fd5b505af1925050508015611ddf57506040513d601f19601f82011682018060405250810190611ddc91906125ac565b60015b611e8557611deb613059565b806308c379a01415611e485750611e006134c5565b80611e0b5750611e4a565b806040517f08c379a0000000000000000000000000000000000000000000000000000000008152600401611e3f9190612a9e565b60405180910390fd5b505b6040517f08c379a0000000000000000000000000000000000000000000000000000000008152600401611e7c90612ac0565b60405180910390fd5b63f23a6e6160e01b7bffffffffffffffffffffffffffffffffffffffffffffffffffffffff1916817bffffffffffffffffffffffffffffffffffffffffffffffffffffffff191614611f0c576040517f08c379a0000000000000000000000000000000000000000000000000000000008152600401611f0390612ae0565b60405180910390fd5b505b505050505050565b828054611f2290612f20565b90600052602060002090601f016020900481019282611f445760008555611f8b565b82601f10611f5d57805160ff1916838001178555611f8b565b82800160010185558215611f8b579182015b82811115611f8a578251825591602001919060010190611f6f565b5b509050611f989190611f9c565b5090565b5b80821115611fb5576000816000905550600101611f9d565b5090565b6000611fcc611fc784612ce9565b612cc4565b90508083825260208201905082856020860282011115611feb57600080fd5b60005b8581101561201b5781612001888261210d565b845260208401935060208301925050600181019050611fee565b5050509392505050565b600061203861203384612d15565b612cc4565b9050808382526020820190508285602086028201111561205757600080fd5b60005b85811015612087578161206d8882612209565b84526020840193506020830192505060018101905061205a565b5050509392505050565b60006120a461209f84612d41565b612cc4565b9050828152602081018484840111156120bc57600080fd5b6120c7848285612ede565b509392505050565b60006120e26120dd84612d72565b612cc4565b9050828152602081018484840111156120fa57600080fd5b612105848285612ede565b509392505050565b60008135905061211c8161355b565b92915050565b600082601f83011261213357600080fd5b8135612143848260208601611fb9565b91505092915050565b600082601f83011261215d57600080fd5b813561216d848260208601612025565b91505092915050565b60008135905061218581613572565b92915050565b60008135905061219a81613589565b92915050565b6000815190506121af81613589565b92915050565b600082601f8301126121c657600080fd5b81356121d6848260208601612091565b91505092915050565b600082601f8301126121f057600080fd5b81356122008482602086016120cf565b91505092915050565b600081359050612218816135a0565b92915050565b60006020828403121561223057600080fd5b600061223e8482850161210d565b91505092915050565b6000806040838503121561225a57600080fd5b60006122688582860161210d565b92505060206122798582860161210d565b9150509250929050565b600080600080600060a0868803121561229b57600080fd5b60006122a98882890161210d565b95505060206122ba8882890161210d565b945050604086013567ffffffffffffffff8111156122d757600080fd5b6122e38882890161214c565b935050606086013567ffffffffffffffff81111561230057600080fd5b61230c8882890161214c565b925050608086013567ffffffffffffffff81111561232957600080fd5b612335888289016121b5565b9150509295509295909350565b600080600080600060a0868803121561235a57600080fd5b60006123688882890161210d565b95505060206123798882890161210d565b945050604061238a88828901612209565b935050606061239b88828901612209565b925050608086013567ffffffffffffffff8111156123b857600080fd5b6123c4888289016121b5565b9150509295509295909350565b6000806000606084860312156123e657600080fd5b60006123f48682870161210d565b935050602084013567ffffffffffffffff81111561241157600080fd5b61241d8682870161214c565b925050604084013567ffffffffffffffff81111561243a57600080fd5b6124468682870161214c565b9150509250925092565b6000806040838503121561246357600080fd5b60006124718582860161210d565b925050602061248285828601612176565b9150509250929050565b6000806040838503121561249f57600080fd5b60006124ad8582860161210d565b92505060206124be85828601612209565b9150509250929050565b6000806000606084860312156124dd57600080fd5b60006124eb8682870161210d565b93505060206124fc86828701612209565b925050604061250d86828701612209565b9150509250925092565b6000806040838503121561252a57600080fd5b600083013567ffffffffffffffff81111561254457600080fd5b61255085828601612122565b925050602083013567ffffffffffffffff81111561256d57600080fd5b6125798582860161214c565b9150509250929050565b60006020828403121561259557600080fd5b60006125a38482850161218b565b91505092915050565b6000602082840312156125be57600080fd5b60006125cc848285016121a0565b91505092915050565b6000602082840312156125e757600080fd5b600082013567ffffffffffffffff81111561260157600080fd5b61260d848285016121df565b91505092915050565b60006020828403121561262857600080fd5b600061263684828501612209565b91505092915050565b600061264b838361292f565b60208301905092915050565b61266081612e6a565b82525050565b600061267182612db3565b61267b8185612de1565b935061268683612da3565b8060005b838110156126b757815161269e888261263f565b97506126a983612dd4565b92505060018101905061268a565b5085935050505092915050565b6126cd81612e7c565b82525050565b60006126de82612dbe565b6126e88185612df2565b93506126f8818560208601612eed565b6127018161307b565b840191505092915050565b600061271782612dc9565b6127218185612e03565b9350612731818560208601612eed565b61273a8161307b565b840191505092915050565b6000612752603483612e03565b915061275d82613099565b604082019050919050565b6000612775602883612e03565b9150612780826130e8565b604082019050919050565b6000612798602b83612e03565b91506127a382613137565b604082019050919050565b60006127bb602683612e03565b91506127c682613186565b604082019050919050565b60006127de602483612e03565b91506127e9826131d5565b604082019050919050565b6000612801602983612e03565b915061280c82613224565b604082019050919050565b6000612824602583612e03565b915061282f82613273565b604082019050919050565b6000612847603283612e03565b9150612852826132c2565b604082019050919050565b600061286a602383612e03565b915061287582613311565b604082019050919050565b600061288d602a83612e03565b915061289882613360565b604082019050919050565b60006128b0602083612e03565b91506128bb826133af565b602082019050919050565b60006128d3602983612e03565b91506128de826133d8565b604082019050919050565b60006128f6602983612e03565b915061290182613427565b604082019050919050565b6000612919602883612e03565b915061292482613476565b604082019050919050565b61293881612ed4565b82525050565b61294781612ed4565b82525050565b60006020820190506129626000830184612657565b92915050565b600060a08201905061297d6000830188612657565b61298a6020830187612657565b818103604083015261299c8186612666565b905081810360608301526129b08185612666565b905081810360808301526129c481846126d3565b90509695505050505050565b600060a0820190506129e56000830188612657565b6129f26020830187612657565b6129ff604083018661293e565b612a0c606083018561293e565b8181036080830152612a1e81846126d3565b90509695505050505050565b60006020820190508181036000830152612a448184612666565b905092915050565b60006040820190508181036000830152612a668185612666565b90508181036020830152612a7a8184612666565b90509392505050565b6000602082019050612a9860008301846126c4565b92915050565b60006020820190508181036000830152612ab8818461270c565b905092915050565b60006020820190508181036000830152612ad981612745565b9050919050565b60006020820190508181036000830152612af981612768565b9050919050565b60006020820190508181036000830152612b198161278b565b9050919050565b60006020820190508181036000830152612b39816127ae565b9050919050565b60006020820190508181036000830152612b59816127d1565b9050919050565b60006020820190508181036000830152612b79816127f4565b9050919050565b60006020820190508181036000830152612b9981612817565b9050919050565b60006020820190508181036000830152612bb98161283a565b9050919050565b60006020820190508181036000830152612bd98161285d565b9050919050565b60006020820190508181036000830152612bf981612880565b9050919050565b60006020820190508181036000830152612c19816128a3565b9050919050565b60006020820190508181036000830152612c39816128c6565b9050919050565b60006020820190508181036000830152612c59816128e9565b9050919050565b60006020820190508181036000830152612c798161290c565b9050919050565b6000602082019050612c95600083018461293e565b92915050565b6000604082019050612cb0600083018561293e565b612cbd602083018461293e565b9392505050565b6000612cce612cdf565b9050612cda8282612f52565b919050565b6000604051905090565b600067ffffffffffffffff821115612d0457612d0361302a565b5b602082029050602081019050919050565b600067ffffffffffffffff821115612d3057612d2f61302a565b5b602082029050602081019050919050565b600067ffffffffffffffff821115612d5c57612d5b61302a565b5b612d658261307b565b9050602081019050919050565b600067ffffffffffffffff821115612d8d57612d8c61302a565b5b612d968261307b565b9050602081019050919050565b6000819050602082019050919050565b600081519050919050565b600081519050919050565b600081519050919050565b6000602082019050919050565b600082825260208201905092915050565b600082825260208201905092915050565b600082825260208201905092915050565b6000612e1f82612ed4565b9150612e2a83612ed4565b9250827fffffffffffffffffffffffffffffffffffffffffffffffffffffffffffffffff03821115612e5f57612e5e612fcc565b5b828201905092915050565b6000612e7582612eb4565b9050919050565b60008115159050919050565b60007fffffffff0000000000000000000000000000000000000000000000000000000082169050919050565b600073ffffffffffffffffffffffffffffffffffffffff82169050919050565b6000819050919050565b82818337600083830152505050565b60005b83811015612f0b578082015181840152602081019050612ef0565b83811115612f1a576000848401525b50505050565b60006002820490506001821680612f3857607f821691505b60208210811415612f4c57612f4b612ffb565b5b50919050565b612f5b8261307b565b810181811067ffffffffffffffff82111715612f7a57612f7961302a565b5b80604052505050565b6000612f8e82612ed4565b91507fffffffffffffffffffffffffffffffffffffffffffffffffffffffffffffffff821415612fc157612fc0612fcc565b5b600182019050919050565b7f4e487b7100000000000000000000000000000000000000000000000000000000600052601160045260246000fd5b7f4e487b7100000000000000000000000000000000000000000000000000000000600052602260045260246000fd5b7f4e487b7100000000000000000000000000000000000000000000000000000000600052604160045260246000fd5b600060033d11156130785760046000803e61307560005161308c565b90505b90565b6000601f19601f8301169050919050565b60008160e01c9050919050565b7f455243313135353a207472616e7366657220746f206e6f6e204552433131353560008201527f526563656976657220696d706c656d656e746572000000000000000000000000602082015250565b7f455243313135353a204552433131353552656365697665722072656a6563746560008201527f6420746f6b656e73000000000000000000000000000000000000000000000000602082015250565b7f455243313135353a2062616c616e636520717565727920666f7220746865207a60008201527f65726f2061646472657373000000000000000000000000000000000000000000602082015250565b7f4f776e61626c653a206e6577206f776e657220697320746865207a65726f206160008201527f6464726573730000000000000000000000000000000000000000000000000000602082015250565b7f455243313135353a206275726e20616d6f756e7420657863656564732062616c60008201527f616e636500000000000000000000000000000000000000000000000000000000602082015250565b7f455243313135353a2063616c6c6572206973206e6f74206f776e6572206e6f7260008201527f20617070726f7665640000000000000000000000000000000000000000000000602082015250565b7f455243313135353a207472616e7366657220746f20746865207a65726f20616460008201527f6472657373000000000000000000000000000000000000000000000000000000602082015250565b7f455243313135353a207472616e736665722063616c6c6572206973206e6f742060008201527f6f776e6572206e6f7220617070726f7665640000000000000000000000000000602082015250565b7f455243313135353a206275726e2066726f6d20746865207a65726f206164647260008201527f6573730000000000000000000000000000000000000000000000000000000000602082015250565b7f455243313135353a20696e73756666696369656e742062616c616e636520666f60008201527f72207472616e7366657200000000000000000000000000000000000000000000602082015250565b7f4f776e61626c653a2063616c6c6572206973206e6f7420746865206f776e6572600082015250565b7f455243313135353a2073657474696e6720617070726f76616c2073746174757360008201527f20666f722073656c660000000000000000000000000000000000000000000000602082015250565b7f455243313135353a206163636f756e747320616e6420696473206c656e67746860008201527f206d69736d617463680000000000000000000000000000000000000000000000602082015250565b7f455243313135353a2069647320616e6420616d6f756e7473206c656e6774682060008201527f6d69736d61746368000000000000000000000000000000000000000000000000602082015250565b600060443d10156134d557613558565b6134dd612cdf565b60043d036004823e80513d602482011167ffffffffffffffff82111715613505575050613558565b808201805167ffffffffffffffff8111156135235750505050613558565b80602083010160043d038501811115613540575050505050613558565b61354f82602001850186612f52565b82955050505050505b90565b61356481612e6a565b811461356f57600080fd5b50565b61357b81612e7c565b811461358657600080fd5b50565b61359281612e88565b811461359d57600080fd5b50565b6135a981612ed4565b81146135b457600080fd5b5056fea2646970667358221220431a8bf5cc9ac72d8ed48104d1971946e9d065c30b5a2f0e0c791c877318b9da64736f6c6343000804003368747470733a2f2f67746167616d652e6578616d706c652f6170692f6974656d2f7b69647d2e6a736f6e",
  "immutableReferences": {},
  "source": "// SPDX-License-Identifier: MIT\npragma solidity >=0.7.0 <0.9.0;\n\nimport \"@openzeppelin/contracts/token/ERC1155/ERC1155.sol\";\nimport \"@openzeppelin/contracts/access/Ownable.sol\";\nimport \"@openzeppelin/contracts/token/ERC1155/extensions/ERC1155Burnable.sol\";\n\ncontract WarWeapon is ERC1155, Ownable, ERC1155Burnable {\n    uint256 public constant gun = 0;\n    uint256 public constant knife = 1;\n    uint256 public constant sword = 10;\n\n    constructor() ERC1155(\"https://gtagame.example/api/item/{id}.json\") {\n        _mint(msg.sender, gun, 2, \"\");\n        _mint(msg.sender, sword, 10, \"\");\n        _mint(msg.sender, knife, 20, \"\");\n    }\n\n    function setURI(string memory newuri) public onlyOwner {\n        _setURI(newuri);\n    }\n}\n",
  "sourcePath": "/Users/mohitchandel/Documents/work/NFTStacking/contracts/WarWeapon.sol",
  "compiler": {
    "name": "solc",
    "version": "0.8.4+commit.c7e474f2.Emscripten.clang"
  },
  "schemaVersion": "3.4.4",
  "updatedAt": "2022-04-04T11:27:02.460Z",
  "devdoc": {
    "kind": "dev",
    "methods": {
      "balanceOf(address,uint256)": {
        "details": "See {IERC1155-balanceOf}. Requirements: - `account` cannot be the zero address."
      },
      "balanceOfBatch(address[],uint256[])": {
        "details": "See {IERC1155-balanceOfBatch}. Requirements: - `accounts` and `ids` must have the same length."
      },
      "isApprovedForAll(address,address)": {
        "details": "See {IERC1155-isApprovedForAll}."
      },
      "owner()": {
        "details": "Returns the address of the current owner."
      },
      "renounceOwnership()": {
        "details": "Leaves the contract without owner. It will not be possible to call `onlyOwner` functions anymore. Can only be called by the current owner. NOTE: Renouncing ownership will leave the contract without an owner, thereby removing any functionality that is only available to the owner."
      },
      "safeBatchTransferFrom(address,address,uint256[],uint256[],bytes)": {
        "details": "See {IERC1155-safeBatchTransferFrom}."
      },
      "safeTransferFrom(address,address,uint256,uint256,bytes)": {
        "details": "See {IERC1155-safeTransferFrom}."
      },
      "setApprovalForAll(address,bool)": {
        "details": "See {IERC1155-setApprovalForAll}."
      },
      "supportsInterface(bytes4)": {
        "details": "See {IERC165-supportsInterface}."
      },
      "transferOwnership(address)": {
        "details": "Transfers ownership of the contract to a new account (`newOwner`). Can only be called by the current owner."
      },
      "uri(uint256)": {
        "details": "See {IERC1155MetadataURI-uri}. This implementation returns the same URI for *all* token types. It relies on the token type ID substitution mechanism https://eips.ethereum.org/EIPS/eip-1155#metadata[defined in the EIP]. Clients calling this function must replace the `\\{id\\}` substring with the actual token type ID."
      }
    },
    "version": 1
  },
  "userdoc": {
    "kind": "user",
    "methods": {},
    "version": 1
  }
}